:020000040800F2
:10000000200A002045010008B50D0008B50C0008C5
:10001000B90C00084B060008DD13000800000000C2
:10002000000000000000000000000000550F000864
:10003000A10A0008000000003D0E00084110000861
:100040005F0100085F0100085F0100085F01000810
:100050005F0100085F0100085F0100085F01000800
:100060005F0100085F0100085F0100085F010008F0
:100070005F0100085F0100085F0100085F010008E0
:100080005F0100085F0100085F0100085F010008D0
:10009000B11300085F0100085F0100085F0100085C
:1000A0005F0100085F0100085F0100085F010008B0
:1000B0005F0100085F0100085F0100085F010008A0
:1000C0005F0100085F0100085F0100085F01000890
:1000D0005F0100085F0100085F0100087D11000852
:1000E0005F0100085F0100085F0100085F01000870
:1000F0005F0100085F0100085F0100085F01000860
:100100005F0100085F0100085F0100085F0100084F
:100110005F0100085F0100085F0100085F0100083F
:100120005F0100085F0100085F0100085F0100082F
:10013000DFF80CD000F068FA004800472D150008E1
:10014000200A00200648804706480047FEE7FEE7F1
:10015000FEE7FEE7FEE7FEE7FEE7FEE7FEE7FEE777
:100160004510000831010008F0B480EA0102D40F04
:100170004200B2EB410F02D20246084611464A0045
:1001800042D0C30DDDB2C1F3C752AD1A202D35DA0E
:10019000C1F3160141F4000204B15242C5F1200638
:1001A00002FA06F12A411044B3EBD05F23D0C4B168
:1001B000012DA0EBC35009DCF0BC4FF0004202EA75
:1001C000C352DBB200F5000000F093B9400000F12B
:1001D000807000EBC350A0F1807040EAD1704900FC
:1001E00009E0490841EAC071A0EBC35000F50000E6
:1001F000400800EBC350F0BC00F072B9614201222C
:1002000002EB4101001BF6E7F0BC704781F00041B2
:10021000AAE780F00040A7E780EA010210B502F0EB
:100220000043400022D04A001FD0010E01EB1261B2
:10023000C0F35600C2F3560240F4000042F400023C
:10024000A0FB022000047F39140400D0401C50EAB7
:10025000124001D44000491EC2B20C0604EBD0107B
:10026000401C4008802A02D003E0002010BD20F08E
:100270000100002900DA0020184310BD2DE9FE4FCF
:1002800081EA030404F0004421F0004100944FF09F
:10029000000B23F0004350EA01045ED052EA03044D
:1002A0005BD0C3F30A54C1F30A552C44A4F2F334CF
:1002B0000194A0FB0254C1F3130141F48011C3F374
:1002C000130343F4801301FB024400FB034E840A32
:1002D000970A44EA815447EA8357A4FB07680295CA
:1002E0008D0A05FB07854FEA932C04FB0C54270568
:1002F000029D4FEA065847EA1637B5EB08056EEB44
:10030000070C870E920E47EA811742EA8312A7FB79
:100310000201B6EB0B0164EB00042B0D43EA0C3336
:100320005E1844EB1C50DA465146E7FB0201C5F368
:1003300013044FEA0B3343EA14534FEA0432019C8F
:1003400043EA0603A4F10C040294009CCDE900B436
:1003500000F00CF903B0BDE8F08F00200146F9E78A
:100360002DE9F04D81EA030404F0004B21F0004533
:1003700014464FF0000A23F0004150EA050220D055
:1003800054EA01021DD0C5F30A570246C5F3130310
:10039000C1F31300C1F30A5640F4801543F48013EF
:1003A000A7EB0608101BD64608F2FD3873EB0500D4
:1003B00002D308F1010801E092185B41B8F1000F87
:1003C00003DA00200146BDE8F08D00204FF48011D3
:1003D000064684460EE0171B73EB050705D3121B78
:1003E00063EB050306434CEA010C49084FEA300071
:1003F00092185B4150EA0107EDD152EA030012D096
:1004000082EA040083EA0501084305D0101BAB41D2
:1004100006D20122002306E000224FF0004302E052
:100420006FF0010253101AEB06004CEB085110EB71
:100430000A0041EB0B01BDE8F04D00F088B8C1F3B4
:100440000A5210B5C1F3130140F2FF3341F4801199
:100450009A4201DA002010BD40F233439A42A2F2E0
:10046000334203DC524200F02BF810BD904010BD27
:1004700000F0004230F000400AD0C10D01F560717B
:10048000C0F3160042EA0151C20840071143704709
:100490000020014670470000002801DBC0F1004049
:1004A000002901DBC1F1004181427047002801DBD6
:1004B000C0F10040002901DBC1F1004188427047D2
:1004C000202A04DB203A21FA02F00021704721FAA9
:1004D00002F3D040C2F12002914008431946704710
:1004E0000029A8BF7047401C490008BF20F0010048
:1004F000704710B4B0FA80FC00FA0CF050EA010426
:1005000004BF10BC704749B1CCF1200421FA04F4B7
:1005100011FA0CF118BF012121430843A3EB0C0190
:10052000CB1D4FEA00614FEA102042BF002010BCF3
:10053000704700EBC35010440029A4BF10BC7047A3
:10054000401C490008BF20F0010010BC704710B5E6
:10055000141E73F1000408DA401C41F100019218E6
:100560005B411A4301D120F0010010BD2DE9F04D8F
:1005700092469B4611B1B1FA81F202E0B0FA80F2E4
:100580002032904600F052F804460F4640EA0A0036
:1005900041EA0B0153465A46084313D0114653EA29
:1005A000010019D0C8F140025046FFF789FF054607
:1005B0000E4650465946424600F038F8084305D0EA
:1005C000012004E020463946BDE8F08D00200543B7
:1005D00046EAE0762C4337430A986305E40AA0EB29
:1005E00008000022FD0A44EA47540A3002D50020E0
:1005F0000146E9E7010510196941DDE908450019DF
:100600006941BDE8F04DA2E7064C074D06E0E06801
:1006100040F0010394E8070098471034AC42F6D349
:10062000FFF78AFD3C1800085C180008202A04DB4C
:10063000203A00FA02F1002070479140C2F12003F5
:1006400020FA03F319439040704700BFFEE7000013
:1006500010B50021837A012202FA03F13D4A1268A3
:1006600042F001023B4B1A603A4A1C3212688A433C
:10067000384B1C331A60027BCAB9364A0C321268F6
:100680008A43344B0C331A604288C38842EA0343DE
:10069000304A4032847A42F834300288838842EA11
:1006A00003432C4A4032847A02EBC4025360027B3B
:1006B000012A19D1274A0C3212680A43254B0C3300
:1006C0001A604288038842EA0343224A4032847A0D
:1006D00042F83430C288838842EA03431D4A4032DC
:1006E000847A02EBC4025360C27A3AB9194A121DE5
:1006F00012688A43174B1B1D1A6006E0154A121D2B
:1007000012680A43134B1B1D1A60028932B9114A41
:10071000143212688A430F4B14331A600289012A7B
:1007200006D10C4A143212680A430A4B14331A6079
:10073000427B012A06D1074A1C3212680A43054B44
:100740001C331A60034A126822F00102014B1A603E
:1007500010BD00000066004070B504460D4600263E
:1007600060692840002871D0B5F5807F5CD010DC2E
:10077000082D35D006DC012D20D0022D24D0042DEB
:1007800072D127E0102D31D0202D35D0402D6BD1E6
:1007900038E0B5F5004F60D009DCB5F5007F49D0F1
:1007A000B5F5806F4CD0B5F5006F5DD14FE0B5F574
:1007B000803F2DD0B5F5003F56D12FE0A0682D49E0
:1007C00000F065F9064651E0E068032100F05FF9AA
:1007D00006464BE0E068082100F059F9064645E07E
:1007E000E068102100F053F906463FE0206903213C
:1007F00000F04DF9064639E02069082100F047F97C
:10080000064633E02069102100F041F906462DE04C
:100810006068082100F03BF9064627E06068102177
:1008200000F035F9064621E0A069012100F02FF91A
:1008300006461BE0A069022100F029F9064615E0F2
:10084000A069042100F023F906460FE00FE0A0693B
:10085000702100F01CF9064608E06068042100F0F1
:1008600016F9064602E0FFE7002600BF00E000267A
:10087000304670BD010101001AB143690B43436169
:1008800002E043698B434361704730B50246002064
:100890000023146824F002041460146844F0010476
:1008A000146000E05B1C546804F001041CB94FF6AE
:1008B000FF74A342F6D1546804F001040CB900207F
:1008C0006CE08C79012C04D1146844F0800414602D
:1008D00003E0146824F080041460CC79012C04D166
:1008E000146844F04004146003E0146824F04004E9
:1008F00014600C7A012C04D1146844F020041460B4
:1009000003E0146824F0200414604C7A012C04D114
:10091000146844F01004146003E0146824F0100418
:1009200014608C7A012C04D1146844F0080414601B
:1009300003E0146824F008041460CC7A012C04D17C
:10094000146844F00404146003E0146824F0040400
:1009500014608C78A407CD7844EA05640D7944EAE4
:1009600005444D7944EA05540D886D1E2C43D4612D
:10097000146824F001041460002300E05B1C546838
:1009800004F001041CB14FF6FF74A342F6D1546881
:1009900004F001040CB1002000E0012030BD10B5CE
:1009A00000F5D87303EB01131B6803F00403137203
:1009B000137A53B900F5D87303EB01131B6840F2A7
:1009C000FF7404EA5353136009E000F5D87303EB96
:1009D00001131B686FF0604404EAD303536000F511
:1009E000D87303EB01131B6803F00203537200F585
:1009F000D87303EB01135B6803F00F03937200F5E8
:100A0000D87303EB01135B681B0AD37400F5D8732A
:100A100003EB01139B68D37200F5D87303EB01134A
:100A20009B681C0A147300F5D87303EB01139B68D1
:100A30001C0C547300F5D87303EB01139B681B0E59
:100A4000937300F5D87303EB0113DB68D37300F5E0
:100A5000D87303EB0113DB681C0A147400F5D87318
:100A600003EB0113DB681C0C547400F5D87303EB23
:100A70000113DB681B0E937421B9C36843F0200394
:100A8000C36003E0036943F02003036110BD024625
:100A9000002002EA01030BB1012000E000207047B2
:100AA00070472DE9FF4706460F4615469846DDE993
:100AB0000D9A0C9C002000900190029003908DF8FC
:100AC0000060FD208DF801008DF8027028128DF86D
:100AD0000300E8B28DF804008DF80580200E8DF833
:100AE0000600200C8DF80700200A8DF80800E0B2FF
:100AF0008DF809008DF80A908DF80BA06B208DF809
:100B00000C000D21684600F035FEBDE8FF872DE999
:100B1000F041024600250026002000230024002783
:100B200091F803C00CF00F0591F803C00CF0100C05
:100B3000BCF1000F03D091F802C04CEA050591F812
:100B400000C0BCF1000F31D0146800202BE04FF042
:100B5000010C0CFA00F3B1F800C00CEA03069E4247
:100B600020D183004FF00F0C0CFA03F7BC4305FAB9
:100B700003FC4CEA040491F803C0BCF1280F06D131
:100B80004FF0010C0CFA00FCC2F814C00AE091F816
:100B900003C0BCF1480F05D14FF0010C0CFA00FC6A
:100BA000C2F810C0401C0828D1D31460B1F800C0AE
:100BB000BCF1FF0F34DD546800202EE000F1080C7A
:100BC0004FF0010808FA0CF3B1F800C00CEA030674
:100BD0009E4221D183004FF00F0C0CFA03F7BC4367
:100BE00005FA03FC4CEA040491F803C0BCF1280F99
:100BF00005D100F1080C08FA0CF8C2F8148091F83D
:100C000003C0BCF1480F07D100F1080C4FF00108F8
:100C100008FA0CF8C2F81080401C0828CED35460A3
:100C2000BDE8F081F0B50A4600230024002100252C
:100C300000F00046B6F1004F02D11D4EF16901E00F
:100C40001B4E7168C0F3034583B200F44016B6F53D
:100C5000401F08D121F07061154E766826F070664D
:100C6000134F7E6012E000F48016B6F5801F06D1A7
:100C7000032606FA05F4A14341F0706106E0460D33
:100C8000360103FA06F6B14341F0706122B1460D18
:100C9000360103FA06F6314300F00046B6F1004F84
:100CA00002D1034EF16101E0014E7160F0BD000020
:100CB0000000014000BFFEE700BFFEE700B589B0BD
:100CC0000121042000F0CCF80121480600F0B8F81A
:100CD00018208DF823004FF48050ADF82000032039
:100CE0008DF8220008A93148FFF711FF48208DF840
:100CF00023004FF40060ADF8200003208DF822009F
:100D000008A92A48FFF703FF012202212848FFF71C
:100D1000B3FD4FF4A06000F087F814208DF81C009C
:100D200001208DF81F008DF81D008DF81E0007A80A
:100D300000F042F800208DF812000620ADF81000F7
:100D400001208DF8140002208DF8150001208DF887
:100D5000130000208DF819008DF81B008DF81A0083
:100D60008DF818008DF816008DF8170004A91048AA
:100D7000FFF78BFD00208DF80A00ADF80000ADF8FC
:100D80000200ADF80400ADF8060001208DF80C005B
:100D900000208DF80B00ADF8080001208DF80D0043
:100DA0006846FFF755FC09B000BD0000000801408F
:100DB000006400407047000070B5002100230F223E
:100DC000C47804B3154C246804F4E064C4F5E0640A
:100DD000210AC1F10403CA40447804FA03F184787B
:100DE0001440214309010E4C0678A155047804F003
:100DF0001F050124AC4005786D11AD0005F1E0251B
:100E0000C5F8004109E0047804F01F050124AC4056
:100E1000044D0678761145F8264070BD0CED00E0D3
:100E200000E400E080E100E002490143024A116071
:100E3000704700000000FA050CED00E0704700006C
:100E400029B1064AD2690243044BDA6104E0034A3D
:100E5000D2698243014BDA61704700000010024002
:100E600029B1064A92690243044B9A6104E0034A9D
:100E700092698243014B9A61704700000010024062
:100E800030B500210022002400232D4D6D6805F0AF
:100E90000C0121B1042905D0082923D105E0294DF1
:100EA000056022E0274D05601FE0254D6D6805F4C3
:100EB0007012234D6D6805F48034022505EB9242D3
:100EC0001CB9214D554305600BE01D4D6D6805F4BF
:100ED00000351DB11C4D5543056002E0194D5543C9
:100EE000056002E0174D056000BF00BF144D6D683E
:100EF00005F0F0010909154D6B5C0568DD404560A2
:100F00000F4D6D6805F4E061090A104D6B5C456892
:100F1000DD4085600A4D6D6805F46051C90A0B4DCE
:100F20006B5C4568DD40C560054D6D6805F440416A
:100F3000890B074D6B5CC568B5FBF3F5056130BDEA
:100F40000010024000127A0000093D0074000020E9
:100F500084000020704710B500F002F810BD0000BA
:100F60000CB50020019000903348006840F48030B8
:100F70003149086000BF3048006800F4003000903C
:100F80000198401C0190009818B90198B0F5A06F25
:100F9000F1D12948006800F4003010B10120009020
:100FA00001E0002000900098012843D12348006808
:100FB00040F01000214908600846006820F0030056
:100FC00008600846006840F0020008601A4840685F
:100FD000194948600846406848600846406840F43F
:100FE000806048600846406820F47C1048600846ED
:100FF000406840F4E81048600846006840F080709F
:10100000086000BF0C48006800F000700028F9D0AC
:101010000948406820F003000749486008464068D6
:1010200040F00200486000BF0348406800F00C0038
:101030000828F9D10CBD0000001002400020024039
:101040007047000010B51348006840F001001149D6
:10105000086008464068104908400E494860084644
:1010600000680E4908400B4908600846006820F4F3
:10107000802008600846406820F4FE0048604FF475
:101080001F008860FFF767FF4FF0006004490860A9
:1010900010BD0000001002400000FFF8FFFFF6FE48
:1010A00008ED00E02DE9FE4F814630480088002819
:1010B0005AD02F4801684846FFF7ABF80546002193
:1010C000FFF7F4F921D22A4801684846FFF7A1F852
:1010D000824628495046FFF79FF88346FFF7C8F934
:1010E00007460022244BFFF73BF90546FFF7A7F917
:1010F00004460020CDE90040034602901B480288C8
:1011000000210120FFF7CDFC2BE01948016848467B
:10111000FFF77FF805460021FFF7BEF921D21448FA
:1011200001684846FFF772F8824612495046FFF7B9
:1011300073F88346FFF79CF9074600220E4BFFF732
:101140000FF90546FFF77BF904460020CDE9004082
:10115000034602900548028801210846FFF7A1FCDA
:1011600000BF0348C0F80090BDE8FE8F5800002083
:1011700054000020000048450080764008B500205B
:10118000009040F225511B4800F057F858B119491A
:10119000091D0988C8B200F093F940F2255115489D
:1011A00000F030F825E040F22441124800F045F804
:1011B000F8B1104800880F48001D008800F098F929
:1011C0000D490870002000900AE000F061F90B4919
:1011D000BDF800208854BDF80000401C80B200908B
:1011E000BDF80000044909788842EEDB012004497B
:1011F000087008BD004800405B0000208800002007
:101200005A00002010B50022002340F66A14A142C3
:1012100000D100BF0A1201249440A3B2DC43048031
:1012200010BD21B1828942F40052828104E082899A
:101230004DF6FF731A408281704770B50246002454
:1012400000230025002040F66A16B14200D100BFFD
:10125000C1F3421501F01F03012606FA03F3012D25
:1012600002D19689334006E0022D02D1168A33401E
:1012700001E0968A33400C12012606FA04F416881F
:10128000344013B10CB1012000E0002070BDF0B576
:101290000346002400260025002040F66A17B942C4
:1012A00000D100BF1846C1F3421401F01F06012708
:1012B00007FA06F5012C01D10C3004E0022C01D113
:1012C000103000E014301AB107682F43076002E0C5
:1012D0000768AF430760F0BD2DE9F04786B00546CB
:1012E0000E460024A24600BFA1460027B08900B1E7
:1012F00000BF2F462C8A4CF6FF700440F088044350
:101300002C82AC894EF6F3100440B0883189084332
:10131000718908430443AC81AC8A4FF6FF40044016
:10132000B0890443AC8201A8FFF7AAFD1F48874299
:1013300002D1DDF810A001E0DDF80CA0A88900F4CE
:10134000004040B10AEBCA0000EB0A1031684900C6
:10135000B0FBF1F807E00AEBCA0000EB0A103168B5
:101360008900B0FBF1F86420B8FBF0F0040120091B
:10137000642101FB1089A88900F4004040B13220AB
:1013800000EBC900B0FBF1F000F00700044308E0F7
:10139000322000EB09106421B0FBF1F000F00F00E7
:1013A00004432C8106B0BDE8F087000000380140FE
:1013B00010B502210648FFF7CFF9012807D1054AE9
:1013C00000210348FFF7EBFA01200349087010BD24
:1013D00000640040080100205C00002000BFFEE720
:1013E00002E008C8121F08C1002AFAD170477047EE
:1013F000002001E001C1121F002AFBD1704710B587
:1014000000F086F900F004F800F0CAF910BD000001
:1014100010B501210D20FFF723FD01218804FFF7FE
:101420000FFD01210148FFF7FDFB10BD0002300058
:1014300008B5002100916FF07F414FF0E02251612B
:10144000002191610521116114E000214FF0E0229B
:1014500091610E4909684FF47A72B1FBF2F1C1F162
:101460008071009100BF4FF0E0218969009A91429C
:10147000F9D8401E0028E8DC4FF0E021096921F08E
:1014800001014FF0E022116108BD00006000002062
:1014900000200A4991F80111084A32F8110011465A
:1014A00091F80111491C82F80111114691F80111BE
:1014B000802902DB002182F8011170471C01002005
:1014C0000A4991F80011094A22F81100114691F8D1
:1014D0000011491C82F80011114691F80011802971
:1014E00002DB002182F80011704700001C0100207F
:1014F0000D4890F801010C4991F80011884208DC70
:10150000094890F80001084991F80111401A80B289
:101510007047054890F80101C0F18000024991F838
:101520000011084480B2F3E71C0100200EB5FFF75C
:1015300066FFFFF7C3FB4FF4FA60FFF779FFD3E0D4
:101540006A4800780128FAD1002068490870684884
:10155000007A04287DD1664840681221B1EB106FF3
:10156000F8D16348808880B241F63C218842F1D1AD
:101570005F48C07A702803D15D48007B0528DED023
:101580005B48C07A70281ED15948007B17281AD1B1
:10159000574C0F342068FEF76BFF0746554A564BF1
:1015A000FEF76CFE0546FEF74AFF5449088000200E
:1015B0000090019003460290084602880021012015
:1015C000FFF76FFA90E04A48C07A702809D148487E
:1015D000007B162805D1464C0F342068FFF762FDCA
:1015E00082E04348C07A702837D14148007B1828F0
:1015F00033D13F4C0F3442492068FEF70DFE82463E
:10160000FEF736FF074600223E4BFEF7A9FE0546D1
:10161000FEF715FF81463C4821680068FEF7F6FD9D
:1016200039490860002138480068FEF735FF06D2C6
:10163000364935480068FEF797FD334908600020B9
:10164000CDE90090034602902C4802880021012039
:1016500000E048E0FFF725FA46E02548C07A702808
:1016600035D12348007B192831D1214C0F3424492E
:101670002068FEF7D1FD8246FEF7FAFE07460022FB
:10168000204BFEF76DFE0546FEF7D9FE81461E484B
:1016900021680068FEF768FD1B4908601B491A486D
:1016A0000068FEF703FF06D2184917480068FEF7E6
:1016B000ADFD154908600020CDE900900346029079
:1016C0000E48028801210846FFF7EBF90CE00848B4
:1016D000C07A702808D10648007B202804D1002059
:1016E000FFF7E0FC00E000BF2AE700005C000020FC
:1016F00008010020273108AC1C1A234058000020A4
:101700000000484500807640540000200000B443AB
:1017100008B54FF44070FFF787FB01208DF80300F8
:1017200000208DF802008DF8010027208DF80000C0
:101730006846FFF741FB08BD08B500210091C0F3E2
:1017400008010B4A11800AE0BDF80010491C89B25B
:101750000091BDF80010B1F5FA5F00DD08BD044945
:10176000091F098801F080010029EDD000BFF5E7CD
:101770000448004038B504460D4600200090009013
:1017800009E09DF80010605CFFF7D6FF9DF80000AF
:10179000401CC0B200909DF80000A842F1DB38BDAB
:1017A00000B585B04FF48060ADF8100003208DF8CF
:1017B000120018208DF8130004A91E48FFF7A7F99E
:1017C0004FF40060ADF8100048208DF8130004A914
:1017D0001848FFF79CF94FF4E13000900020ADF875
:1017E0000400ADF80600ADF80800ADF80C000C20C0
:1017F000ADF80A0069461048FFF76EFD0E480088F4
:101800000D48001D008840F225510B48FFF7FAFCF7
:10181000012240F225510848FFF739FD012240F22C
:1018200024410548FFF733FD01210348FFF7F9FC88
:1018300005B000BD000C0140004800405C180008E5
:101840000000002088000000E0130008E4180008F1
:101850008800002098090000F013000855050000DA
:101860003C1A00120400087005000011000000007E
:10187000000000003C1A001204000870170000006D
:1018800000204100660600003C1A001204000870A7
:101890001600000000364200000000003C1A000361
:1018A000040008000000000000000000000000002C
:1018B00000000000640000000000000000A24A04D4
:1018C00000000000000000000102030406070809F0
:1018D00000000000010203040102030406070809D6
:0418E00002040608F0
:0400000508000131BD
:00000001FF
