:020000040800F2
:100000009007002089010008F71600088F150008E6
:10001000F51600088B020008911800080000000087
:10002000000000000000000000000000FB160008B7
:100030008D02000800000000F9160008FD160008F7
:10004000A3010008A3010008A3010008A301000800
:10005000A3010008A3010008A3010008A3010008F0
:10006000A3010008A3010008A3010008A3010008E0
:10007000A3010008A3010008A3010008A3010008D0
:10008000A3010008A3010008A3010008A3010008C0
:1000900085180008A3010008A3010008A3010008B7
:1000A000A3010008A3010008A3010008A3010008A0
:1000B000A3010008A3010008A3010008A301000890
:1000C000A3010008A3010008A3010008A301000880
:1000D000A3010008A3010008A3010008A301000870
:1000E000A3010008A3010008A301000800F002F822
:1000F00000F03AF80AA090E8000C82448344AAF188
:100100000107DA4501D100F02FF8AFF2090EBAE885
:100110000F0013F0010F18BFFB1A43F0010318473B
:100120000C1E00002C1E0000103A24BF78C878C1B5
:10013000FAD8520724BF30C830C144BF04680C60ED
:10014000704700000023002400250026103A28BF35
:1001500078C1FBD8520728BF30C148BF0B60704739
:100160001FB51FBD10B510BD00F058F81146FFF7C0
:10017000F7FF01F07FFC00F076F803B4FFF7F2FF21
:1001800003BC00F07BF8000009488047094800479D
:10019000FEE7FEE7FEE7FEE7FEE7FEE7FEE7FEE737
:1001A000FEE7FEE704480549054A064B7047000094
:1001B00051170008ED000008900100209007002072
:1001C00090030020900300204FF0000200B513467A
:1001D00094469646203922BFA0E80C50A0E80C5067
:1001E000B1F12001BFF4F7AF090728BFA0E80C5018
:1001F00048BF0CC05DF804EB890028BF40F8042B11
:1002000008BF704748BF20F8022B11F0804F18BF7D
:1002100000F8012B7047704770477047754600F033
:1002200029F8AE4605006946534620F0070085468A
:1002300018B020B5FFF7B6FFBDE820404FF000062C
:100240004FF000074FF000084FF0000B21F00701BE
:10025000AC46ACE8C009ACE8C009ACE8C009ACE801
:10026000C0098D4670470446AFF300802046FFF773
:1002700084FF000000487047300100200149182029
:10028000ABBEFEE7260002007047FEE7704772B67D
:10029000FEE790F82020012A07D0022A05D0416A03
:1002A00041F48021416201207047006842690A439D
:1002B000426100207047F0B590F820500468A468AF
:1002C000012D05D0022D03D0416A41F480214DE07B
:1002D00014F0406F01D1E50045D5C4F30164012558
:1002E000A5401D608D684FF4C0739DB1CE68354345
:1002F0004E6845EAC605066803EB0417F5514FF44E
:10030000C275076805EB04150E697E51097D012948
:1003100005D009E00E88CD6845EA4655EBE701684F
:100320004E5946F480764E511179D2F805504FF46B
:10033000C67641EA0521056806EB0416A951117835
:10034000D2F801204FF4C47541EA0221026805EB9E
:1003500004155151006803EB0411425842F00102A8
:1003600042500020F0BD416A41F400114162012079
:10037000F0BD000010B590F820300268012B07D0C6
:10038000022B05D0416A41F480214162012010BD59
:10039000D2F8000240F00100C2F80002087D00F02F
:1003A0001F0301209840D2F81C328343C2F81C324C
:1003B000CB69B3B9D2F80C328343C2F80C328C89C2
:1003C0004B6864F31F434C6902EBC404C4F8403229
:1003D0000C890B6864F31F434C6902EBC404C4F836
:1003E0004432CB69012B16D1D2F80C320343C2F848
:1003F0000C320C884B6864F31F434C6902EBC40455
:10040000C4F840320C89CB6864F31F434C6902EB9B
:10041000C404C4F844328B69002BD2F804320FD0E4
:1004200053EA0003C2F804320B69002BD2F81432ED
:1004300008D00343C2F81432096A012904D008E045
:100440008343EFE78343F5E7D2F81C120143C2F878
:100450001C12D2F8000220F00100C2F800020020B5
:1004600010BD704770B590F82040012C05D0022CCB
:1004700003D0416A41F4802128E0046809B324696B
:10048000A40720D04FF4D874056804EB01142D594B
:1004900015F00405956005682D591AD0ED085560D2
:1004A00005682C5904F00204D4604FF4DA7405682E
:1004B00004EB01142E5906F00F06082E0CD3082564
:1004C0000DE0E468DCE7416A41F40011416201207B
:1004D00070BD6D0D1560E3E72D5905F00F05156131
:1004E00005682D59C5F30725956105682C59240C1D
:1004F00054614FF4DC72046802EB0112A4581C70C2
:100500000468A458240A5C700468A458240C9C70E5
:100510000468A258120EDA704FF4DE72046802EB1F
:100520000112A4581C710468A458240A5C71046860
:10053000A458240C9C710468A258120EDA71006849
:1005400029B1016941F020010161002070BDC1683D
:1005500041F02001C160F8E70246002092F8201027
:10056000012901D002290CD111688A68520100D5F5
:1005700001208A68120100D5401C8968C90000D595
:10058000401C70472DE9F05F05460068002446696D
:10059000D0F804908768D0F80CB0D0F810A0D0F84C
:1005A0001880F10748D0F90714D001218160B807FD
:1005B00003D5284600F02BFA0CE0780702D54FF45B
:1005C000006407E0380702D54FF4805402E0284663
:1005D00000F01CFAF80516D529684FF48070886081
:1005E000B80503D5284600F014FA0CE0780502D5CA
:1005F00044F4005407E0380502D544F4804402E096
:10060000284600F005FAF80316D529684FF4803023
:100610008860B80303D5284600F0FDF90CE07803A4
:1006200002D544F4004407E0380302D544F4803492
:1006300002E0284600F0EEF9300707D55FEACB600C
:1006400004D52968102044F40074C86070074FF086
:10065000080707D55FEA0B7004D52868C7602846ED
:1006600000F05AF9B00706D52868C068800702D0A4
:10067000284600F053F9700607D55FEACA6004D532
:100680002968102044F480640861B00607D55FEA49
:100690000A7004D528680761284600F057F9F0066B
:1006A00006D528680069800702D0284600F04FF977
:1006B000B00308D55FEAC96005D5296810204860F5
:1006C000284600F045F9F00307D55FEA097004D524
:1006D00028684760284600F09FF9300446D55FEA55
:1006E000497040D5F00504D55FEAC87001D044F0E8
:1006F0000104B00504D55FEA887001D544F0020416
:10070000700504D55FEA487001D544F00404300553
:1007100029D518F0700F26D008F07000402815D0A9
:1007200006DC102809D020280AD0302816D10AE08B
:1007300050280ED0602811D10EE044F008040DE0DE
:1007400044F010040AE044F0200407E044F04004C0
:1007500004E044F0800401E044F480742868816976
:1007600021F070018161296804204860002C05D0C7
:10077000686A204368622846FFF773FEBDE8F09F71
:1007800070B5040003D094F8200010B104E00120FB
:1007900070BD204600F082F82068016841F0010138
:1007A000016000F043FA0546052604E000F03EFA39
:1007B000401B0A2811D820684068C007F6D020687E
:1007C000016821F00201016000F030FA05460BE0FB
:1007D00000F02CFA401B0A2806D9606A40F4003069
:1007E000606284F82060D2E7206840688007EFD418
:1007F000207E0128206801683DD021F08001016041
:10080000607E01282068016838D021F04001016035
:10081000A07E01282068016833D021F0200101600A
:10082000E07E0128206801682ED041F010010160AF
:10083000207F01282068016829D021F0080101608B
:10084000607F01282068016824D021F00401016044
:10085000D4E902010843D4E9041211430843616852
:10086000491E08432168C86100206062012084F8A5
:100870002000002070BD41F08001C0E741F0400140
:10088000C5E741F02001CAE721F01001CFE741F0B0
:100890000801D4E741F00401D9E7000010B586B0A3
:1008A000002100910191029103910068174988424B
:1008B0002AD11748C16941F00071C161C16901F0D5
:1008C00000710491816941F0040181618069114CDA
:1008D00000F0040004904FF4006000906946204648
:1008E00000F0AEF8A01400900220019003200390C5
:1008F0006946204600F0A4F800221146142000F0BA
:100900006BFA142000F05AFA06B010BD00640040E3
:1009100000100240000801407047000010B5006858
:10092000074988420AD1084A064B002102F11C00FF
:10093000FFF798FD03490120491E087010BD000013
:10094000006400401D0000205C00002070477047DC
:100950007047000070B5044690F82000012804D0CC
:10096000606A40F40020606218E0022084F82000F1
:100970002068016821F00101016000F057F9054687
:100980000EE000BF00F052F9401B0A2808D9606A47
:1009900040F400306062052084F82000012070BD22
:1009A00020684068C007EDD1606270BD70B5044634
:1009B00090F82000022804D0606A40F48010606241
:1009C00014E02068016841F00101016000F02EF997
:1009D00005460DE000F02AF9401B0A2808D9606A94
:1009E00040F400306062052084F82000012070BDD2
:1009F00020684068C007EDD02068016821F002013E
:100A00000160012084F82000002070BD704770470D
:100A100070477047704770477047000070B50446D4
:100A200000F004F90546601C02D004480078044434
:100A300000F0FCF8401BA042FAD370BD2800002053
:100A40002DE9F84FDFF8B8910024A9F1040B2346F3
:100A50000F2709F1040AABF1040EC9E00125A540F6
:100A60002A40AA427DD1674ED1F804C0ACEB0608FB
:100A7000B44532D014DCBCF1030F3AD009DCBCF130
:100A8000000F2AD0BCF1010F1CD0BCF1020F31D1F4
:100A90001DE0BCF1110F17D0BCF1120F2AD119E0E3
:100AA000B8F5881F19D006DCB8F5803F15D0B8F529
:100AB000801F1FD111E0B8F5001F0ED0B8F5041F3C
:100AC00018D10AE0CB6815E0CB681B1D12E0CB689B
:100AD00008330FE0CB680C330CE08B682BB1012B93
:100AE0004FF0080303D0456104E0042302E00561F0
:100AF00000E00023FF2A01D8064601E000F10406C9
:100B00004FEA840501D9A5F12005D6F8008007FA3F
:100B100005FC28EA0C0803FA05F548EA0508C6F8BA
:100B200000804D68ED0062D5374DAE6946F0010694
:100B3000AE61AD6924F0030605F001050095334D63
:100B400006EB050CDCF80850A607360F07FA06F886
:100B500025EA0805DFF8B880404503D14FF00008CA
:100B600017E044E0DFF8AC80404502D14FF00108C7
:100B70000FE0DFF8A480404502D14FF0020808E002
:100B8000DFF89880404502D14FF0030801E04FF0B4
:100B9000040808FA06F848EA0508CCF808804D6809
:100BA000D9F80060ED024D4601D5164300E09643AA
:100BB0002E604D68DAF80060AD02554601D5164347
:100BC00000E096432E604D68DBF80060AD035D46A3
:100BD00001D5164300E096432E604D68DEF80060B4
:100BE000ED03754601D5164300E096432E60641C64
:100BF0000D682A46E5407FF431AFBDE8F88F00006C
:100C000008040140000011100010024000000140E3
:100C100000080140000C0140001001400014014098
:100C20000AB1016170470904FBE7000001488068D0
:100C3000704700002800002090F84010012912D0D1
:100C4000012100F8401F2421417050F8401CCA685F
:100C500022F00C0242F00402CA60202141700021FF
:100C60000170084670470220704790F84010012933
:100C700012D0012100F8401F2421417050F8401C7F
:100C8000CA6822F00C0242F00802CA6020214170BA
:100C900000210170084670470220704770B50400BB
:100CA00004D094F84100002510B106E0012070BD89
:100CB00084F84050204600F073FB242084F8410063
:100CC0002068C16821F40051C160204600F042FD57
:100CD0002068016921F4904101612068416921F097
:100CE000220141612068416941F0080141612068A9
:100CF000C16841F40051C1606564202084F841005E
:100D000084F842006563002070BD000002488168DD
:100D1000027811448160704728000020074810B510
:100D2000016841F010010160032000F075F80F2008
:100D300000F006F800F024F8002010BD002002406A
:100D400070B50D4D04464FF47A712878B1FBF0F080
:100D50000A490968B1FBF0F000F0DCFA48B9102C40
:100D600007D200222146501E00F036F800206C60A9
:100D700070BD012070BD000028000020340000205C
:100D80000C4808B5816941F001018161816901F078
:100D900001010091C16941F08051C161C06900F059
:100DA000805000900448416821F0E06141F00071FA
:100DB000416008BD0010024000000140002809DB2E
:100DC00000F01F02012191404009800000F1E02065
:100DD000C0F8001170470000F0B40E4B1B680C46C1
:100DE000C3F30223C3F10705042D00D90425191DFF
:100DF000072901D2002300E0DB1E012606FA05F1D7
:100E0000491E214099409E40761E16403143F0BC59
:100E100000F03FBD0CED00E0064900F00702086855
:100E20004FF6FF03184040EA0220034A10430860CF
:100E3000704700000CED00E00000FA052DE9F047D6
:100E40000F46050061D0434E306800F00700B842FD
:100E500009D2306820F0070038433060306800F075
:100E60000700B84251D128683B4C810712D5400792
:100E700003D5606840F4E06060602878000703D51F
:100E8000606840F4605060606068A96820F0F0001D
:100E9000084360602878C00728D06868012810D00F
:100EA0002168022810D0890700292EDA616821F014
:100EB000030101436160FFF7B9FE804641F28839C2
:100EC0000DE021688903EFE78901EDE7FFF7AEFE4A
:100ED000A0EB0801494502D90320BDE8F08760680E
:100EE000696800F00C00B0EB810FEFD1306800F0C2
:100EF0000700B8420BD9306820F007003843306053
:100F0000306800F00700B84201D00120E5E72878FA
:100F1000400705D56068E96820F4E0600843606038
:100F20002878000706D56068296920F4605040EAF7
:100F3000C100606000F038F86168084AC1F303112D
:100F4000515CC8400649086006480068FFF7F8FE93
:100F50000020C2E70020024000100240121F0008DB
:100F6000340000202C00002004480549006849682E
:100F7000044AC1F30221515CC8407047340000208C
:100F800000100240221F0008044805490068496813
:100F9000044AC1F3C221515CC840704734000020AC
:100FA00000100240221F00080E4A51680E4801F04E
:100FB0000C03042B11D0082B0FD10C48C1F3834331
:100FC000C903C05C0AD55168084AC1F34041921E6A
:100FD000515C054A5043B0FBF1F070470449484367
:100FE000704700000010024000127A00021F000843
:100FF00000093D002DE9F84F040070D02078C04D65
:10100000C00749D06868C0F38100012807D068682C
:10101000C0F38100022809D16868C00306D528689A
:10102000800339D560680028E7D035E06068B0F506
:10103000803F0BD010B1B0F5A02F11D0286820F45C
:1010400080302860286820F4802002E0286840F47E
:1010500080302860606890B1FFF7E8FD06460AE03E
:10106000286840F480202860F0E700BFFFF7DEFD2D
:10107000801B642873D828688003F7D50CE0FFF73D
:10108000D5FD064605E000BFFFF7D0FD801B6428B4
:10109000F0D828688003F7D420789A4E80074FF064
:1010A00001094FF0000839D5686810F00C0F07D01F
:1010B0006868C0F38100022809D16868C00306D4BB
:1010C0002868800714D52069012808D110E020691C
:1010D000B0B1C6F80090FFF7A9FD074605E00AE1A8
:1010E000FFF7A4FDC01B0228C4D828688007F7D5E5
:1010F0002868616920F0F80040EAC10028600DE02E
:10110000C6F80080FFF792FD074604E0FFF78EFD6A
:10111000C01B022823D828688007F7D4207800074E
:101120002CD57948A169D9B1C0F80090FFF77EFDB0
:10113000074604E0FFF77AFDC01B02280FD8686A53
:101140008007F7D571484FF4FA510068B0FBF1F011
:10115000009000BF0098411E0091FAD20EE080E09E
:10116000C0F80080FFF762FD074604E0FFF75EFD70
:10117000C01B022875D8686A8007F7D4207840071A
:1011800060D5E8690027C00008D4E86940F08050C5
:10119000E861E869012700F0805000905C48016830
:1011A000C90513D40168834641F480710160FFF7DB
:1011B0003DFD824606E000BFFFF738FDA0EB0A00C8
:1011C00064284ED8DBF80000C005F5D5E06801289A
:1011D0000AD008B1052813D0286A20F0010028623F
:1011E000286A20F0040002E0286A40F0010028622A
:1011F000E06841F2883B98B1FFF718FD82460BE0AA
:10120000286A40F004002862EEE700BFFFF70EFDF9
:10121000A0EB0A0159455AD8286A8007F6D50CE098
:10122000FFF704FD824605E0FFF700FDA0EB0A0191
:1012300059454CD8286A8007F6D41FB1E86920F0D8
:101240008050E861E06988B36968C1F381010229CF
:1012500044D00228C6F8608004D0FFF7E7FC0446BB
:1012600038E034E0FFF7E2FC074604E0FFF7DEFC7D
:10127000C01B02282BD828688001F7D4206AB0F55B
:10128000803F05D16868A16820F400300843686099
:10129000D4E908010843696821F4741108436860BF
:1012A000C6F86090FFF7C2FC044606E025E000BFE8
:1012B000FFF7BCFC001B022809D828688001F7D57D
:1012C0001BE000BFFFF7B2FC001B022802D903207D
:1012D000BDE8F88F28688001F4D40EE00128F7D02B
:1012E0006868226A00F48031914204D1616A00F496
:1012F0007010884201D00120EAE70020E8E70000F2
:1013000000100240000042428004424234000020AB
:101310000070004010B5401EB0F1807F01D3012065
:1013200010BD4FF0E02460610F21601700F0B1FAAA
:101330000020A06107202061002010BD70B50400CE
:1013400004D094F84100002510B106E0012070BDE2
:1013500084F84050204600F023F8242084F841000F
:101360002068C16821F40051C160204600F0F2F904
:101370002068016921F4904101612068416921F0F0
:101380002A0141612068C16841F40051C16065646F
:10139000202084F8410084F842006563002070BD7D
:1013A00030B585B000240094019402940394224D3A
:1013B0000368224903222248AB4216D18B6943F4C9
:1013C00080438B618B6903F4804304938B6943F002
:1013D00004038B618969039201F0040104914115B2
:1013E000009112210191694621E0164DAB4220D1B6
:1013F000CB6943F40033CB61CB6903F4003304932E
:101400008B6943F004038B618969039201F0040145
:101410000491042100910221019169460546FFF7DC
:101420000FFB0820CDE90004694628460294FFF727
:1014300007FB05B030BD000000380140001002403D
:1014400000080140004400402DE9F843044690F8AC
:101450004200994616460D46202802D00220BDE8DB
:10146000F883ADB1A6B100206064222184F8421057
:101470002063FFF7DBFBA6858046E685A0684FF476
:101480008057B84201D1206920B12E46002526E0C0
:101490000120E4E7002622E04346002220212046E6
:1014A000CDF8009000F0B2F908B10320D7E726B1DB
:1014B000A068B8421BD038B108E020684068C0F38B
:1014C000080025F8020B07E0206980B12068406819
:1014D00000F07F0006F8010BE08D401EE085E08DF6
:1014E0000028D9D1202084F842000020B7E72068E6
:1014F0004068EFE72DE9F843044690F841001F46A5
:1015000016460D46202802D00220BDE8F8837DB1A2
:1015100076B100206064212084F84100FFF786FB4B
:10152000A6848046E684A068B0F5805F02D003E020
:101530000120EAE7206910B12E4600250EE00026C2
:101540000CE08021204600F061F9A0B9AEB116F898
:10155000010B21684860E08C401EE084E08C43462B
:101560004FF0000200970028EBD14FF040012046D9
:1015700000F04CF930B10320C7E735F8020BC0F397
:101580000800E6E7202084F841000020BDE7FEE7E0
:1015900030B51F488BB01D49016002210024C0E90D
:1015A0000114C903C0E9034144610476447601256E
:1015B0008576C57604774477FFF7E2F808B1FEF741
:1015C00066FE0594CDE906452420CDE9004040F2B1
:1015D000FF70CDE902400E200494CDE90850694621
:1015E0000B48FEF7C7FE08B1FEF751FE0848FFF7AB
:1015F000B1F908B1FEF74BFE02210548FEF749FE9E
:10160000002801D0FEF743FE0BB030BD006400405F
:101610007800002030B585B000241848009401946B
:1016200002940394816941F020018161816901F094
:1016300020010491816941F004018161816901F017
:1016400004010491816941F00801816180690C4DB8
:1016500000F008000490002208212846FFF7E0FA75
:10166000082000900120CDE9010402200390694682
:101670002846FFF7E5F905B030BD00000010024034
:10168000000C01400C4810B50A4901604FF4E131EB
:101690004160002181600C22C160C0E904128161B7
:1016A000C161FFF7FBFA002803D0BDE81040FEF748
:1016B000EEBD10BD00380140A00000200C4810B560
:1016C0000A4901604FF4E1314160002181600C2240
:1016D000C160C0E904128161C161FFF72FFE0028DB
:1016E00003D0BDE81040FEF7D2BD10BD004400405D
:1016F000E8000020FEE7FEE770477047FFF706BBF3
:1017000010B590B028216846FEF75EFD14210AA8A6
:10171000FEF75AFD022000900120049010200024C2
:10172000059007946846FFF765FC08B172B6FEE7BE
:101730000F20CDE90A040C940D9400210AA80E9400
:10174000FFF77CFB002801D072B6FEE710B010BD99
:101750007047000070B5044600680169E26821F432
:101760004051114301612169A06808436169084340
:101770002168CA6841F20C639A430243CA60206838
:101780004169A26921F44071114341611E492068F9
:10179000884202D1FFF7F8FB01E0FFF7E5FB00EB21
:1017A000C00101EB0012606864218000B2FBF0F31D
:1017B000B3FBF1F36FF018067343B2FBF0F5B2FB25
:1017C000F0F605EB8305322303EB0515B5FBF1F5C8
:1017D000B6FBF1F605F0F00505EB0615B2FBF0F6E9
:1017E000B2FBF0F0B0FBF1F06FF01802504306EBE3
:1017F000800003EB0010B0FBF1F0216800F00F0057
:101800002844886070BD0000003801402DE9F04197
:10181000984617460E460446069D27E0681C25D0CC
:101820002DB1FFF703FAA0EB0800A8421ED92068EB
:101830000C3050E8001F21F4D07140E80012002A5B
:10184000F5D12068143050E8001F21F0010140E874
:101850000012002AF5D1202084F8410084F84200CB
:10186000002084F840000320BDE8F0812068006873
:1018700036EA000004D00020B842CFD00020F3E7C1
:101880000120F9E70148FEF77DBE00007800002046
:10189000FEE70907090E002804DB00F1E02080F8CC
:1018A0000014704700F00F0000F1E02080F8141DD4
:1018B00070470000F8B514460122009200060F4A56
:1018C00040EA04200843069DC2E9004004209060DD
:1018D0000020C2E903051E4608496B46324601F165
:1018E0003400FEF7E8FC08B10120F8BD03483430AD
:1018F000FEF732FE0328F9D10020F8BD4400002095
:1019000010B500230222891C04E0845C521C23448D
:101910009BB2D2B28A42F8D3D843C0B210BD0021E4
:101920000A464254491CC9B20829FAD3704700003C
:101930002C4B10B518705A70A3F10A02122827D246
:10194000DFE800F02609090B19272C3A270926267B
:1019500026262626094848791EE048799871887914
:10196000D87148798B7900EB03201080C879097A07
:1019700000EB01200BE0C8799871087AD8714B7997
:101980008C7903EB04231380C97901EB002050808C
:1019900010BD487998718879D87110BD48799871CF
:1019A0008879D87148798B7900EB03209080C879C9
:1019B000097A00EB01200BE0C8799871087AD87198
:1019C0004B798C7903EB04239380C97901EB0020D8
:1019D000D08010BD4879D871C879097A00EB012010
:1019E000108110BD0A00002070B5214906468AB05A
:1019F0001E48086002200024C1E90104C003C1E9B7
:101A000003404C610C764C7601258D76CD760C77B3
:101A10004C770846FEF7B4FE08B1FEF738FC042008
:101A20000594CDE9064500EBC600CDE9004040F243
:101A3000FF70CDE902400E200494CDE908506946BC
:101A40000B48FEF797FC08B1FEF721FC0848FEF7AB
:101A500081FF08B1FEF71BFC02210548FEF719FCC7
:101A6000002801D0FEF713FC0AB070BD00640040EE
:101A7000780000201CB54FF0FE080425FFF74EF952
:101A8000FFF73EFEFFF7C6FDFFF782FDFFF7FAFD09
:101A9000FFF714FEDFF810A4DFF808B40AF1020023
:101AA000002701909BF800100129FBD1FF488BF81B
:101AB00000704068060EC4B2C0F30729AC42F1D1F1
:101AC000F9480838FFF72BFF26B1012E78D0022EF7
:101AD0001BD1C7E1F64B187888B103218AF8028040
:101AE0008AF80310122810D2DFE800F00F10383EF9
:101AF0003E404D4D6B880F0F0F0F0F0F8AA7EA491D
:101B00000839087001204870CC71E2E1FE238AF8A0
:101B100002300E22D0468AF80420E348FFF7F0FE98
:101B200098F8032001995054E248FFF79EF898F87E
:101B300003204FF0FF384346DB49DE48D21CFFF755
:101B4000D9FCDC48FFF778F843460722DA49D94840
:101B5000FFF77AFCD84890F8058001E0132350E0A5
:101B6000D348012200780AE015200DE01C2329E06B
:101B7000D149D048FFF768FCCD4802220078CE4911
:101B8000FFF7D6FEA5E117208AF80400C648FFF744
:101B9000B7FE9AF8032001995054C648FFF765F83C
:101BA0009AF803204FF0FF33BF49C248D21CFFF719
:101BB000A1FCC048FFF740F84FF0FF330A22D7E7F7
:101BC0005CE01B238AF80430B748FFF799FE9AF8C7
:101BD000032001995054B748FFF747F89AF80320BB
:101BE0004FF0FF33B049B348D21CFFF783FCB14834
:101BF000FFF722F84FF0FF330822B9E7242300E073
:101C00001A238AF80430A848FFF77AFE9AF80320CE
:101C100001995054A748FFF728F89AF803204FF08D
:101C2000FF33A149A348D21CFFF764FCA148FFF78A
:101C300003F84FF0FF3307221BE01E238AF804301D
:101C40009948FFF75DFE9AF803200199505499488E
:101C5000FFF70BF89AF803204FF0FF3392499548AD
:101C6000D21CFFF747FC9348FEF7E6FF4FF0FF3327
:101C70000A2291498F48FFF7E7FB71E78AF8028053
:101C80008C48FEF7F2FF8A4A107804286BD007DCF4
:101C900068B1012817D0022828D003287DD145E05B
:101CA00006287BD007287AD01128F7D1C8E0D5794B
:101CB00082482C46FEF77AFE6420FEF7AFFE2846E7
:101CC000FFF792FEB6E004218AF803100D238AF88C
:101CD0000430D0798AF8050080467348FFF710FE7B
:101CE00001469AF80320019811549AE004218AF8D9
:101CF000031011238AF80430D2798AF805206A4843
:101D0000FFF7FEFD9AF8032001994FF0FF3350547E
:101D10009AF8032064496748D21CFFF7EBFB0321C4
:101D20008AF8031012228AF8042073E007218AF847
:101D3000031014238AF804309079D27900EB022042
:101D400083B25948123803804288934201D3531E0C
:101D5000038098B28AF80500030A8AF806308AF8E8
:101D60000720120A1CE007218AF8031014238AF8BE
:101D700004309379D07903EB002083B24A481238BB
:101D8000438002889A4201D3531C43808AF805207D
:101D9000130A8AF80630408838E09AE003E01CE035
:101DA0008AF8082036E007218AF8031016238AF8FB
:101DB00004309079D27900EB02203B4A83B2123A88
:101DC0009380D088834201D3431E93809AB28AF8CD
:101DD0000520130A8AF8063018E007218AF8031054
:101DE00016238AF804309079D27900EB02202E4A2B
:101DF00083B2123AD3809088984201D3431CD38097
:101E00008AF80500030A8AF80630D0888AF80700A5
:101E1000020AC5E72448FFF773FD9AF803200199E9
:101E200050549AF803204FF0FF331F492148D21C29
:101E3000FFF760FB1C491E48083900F059F848E0DC
:101E400007218AF803101D238AF804301648D27936
:101E50008AF8052012388AF806700089020A8AF882
:101E60000720D7E78AF8028007218AF803100120AB
:101E70008AF804000E4803788AF8053042788AF818
:101E8000062003798AF8073042798AF80820064844
:101E9000FFF736FD9AF80320019950540548FEF7E4
:101EA000E4FE0DE01C000020120000205C00002079
:101EB0001D000020A0000020380000207800002035
:101EC0009AF803204FF0FF3307490848D21CFFF768
:101ED00011FB0820044B0090083B2246494630463F
:101EE000FFF7E8FCDEE5000012000020A000002063
:101EF0000022835C8B54521CD2B2082AF9D370475B
:101F0000010202030405060708090A0B0C0D0E0F57
:101F1000101000000000000000000102030406078A
:101F20000809000000000102030400004C1F000823
:101F3000000000203800000028010008841F00086D
:101F40003800002058070000440100080000E803A2
:101F50009411E02EF401000000000000000055552F
:101F60000000000000000000000000000000000071
:101F70000000000001000000100000000000000050
:041F80000024F40045
:04000005080000ED02
:00000001FF
